:0300000002087281
:0C087200787FE4F6D8FD758107020800CD
:10086000E4FDFCC3ED9FEC9E50070DBD00010C8024
:01087000F295
:010871002264
:10080000E4FBFA9001F4C290AF03AE02120860D28A
:1008100090AF82AE83120860D2802080227F647EF7
:1008200000120860208018E5821582700215830B83
:10083000BB00010AE582458370059001F4FAFB20B4
:1008400081C47F647E001208602081BAA3EB1B7014
:10085000011AEB4A70B07A017BF4F583F58280A629
:00000001FF
