:0300000002089360
:0C089300787FE4F6D8FD75811A0208DABF
:10091F00120900010002000300040000000400039C
:07092F0000020001010800B5
:10093700E4FDFCC3ED9FEC9E50070DBD00010C804C
:01094700F2BD
:01094800228C
:10080000E4FBFA9001F4C290AF03AE02120937D2B2
:1008100090AF82AE83120937D2802080E97F647E58
:1008200000120937208018E50825E02409F8E6FEC3
:1008300008E664014E70087A017BF4F583F582E5E1
:100840000825E02409F8E6FE08E6FF64024E700978
:100850007A017B77F58375827DEF64034E7008FA29
:100860007BFAF5837582FAEF64044E7006FA7B7D9D
:10087000900177EF4E7005FAFB9001F40508E5084A
:10088000B40903E4F5083080FD7FB07E0412093717
:0308900002080655
:10089F00020800E493A3F8E493A34003F68001F267
:1008AF0008DFF48029E493A3F85407240CC8C3335A
:1008BF00C4540F4420C8834004F456800146F6DF29
:1008CF00E4800B010204081020408090091FE47E91
:1008DF00019360BCA3FF543F30E509541FFEE4931E
:1008EF00A360010ECF54C025E060A840B8E493A3E5
:1008FF00FAE493A3F8E493A3C8C582C8CAC583CA10
:10090F00F0A3C8C582C8CAC583CADFE9DEE780BEC7
:0109360000C0
:00000001FF
